:020000040800F2
:10000000C808002079020008DD1900082D16000834
:10001000B916000871040008D92200080000000089
:100020000000000000000000000000001522000891
:100030008104000800000000E119000819220008EE
:10004000930200089302000893020008930200083C
:10005000930200089302000893020008930200082C
:10006000930200089302000893020008930200081C
:10007000930200089302000893020008930200080C
:1000800093020008930200089302000893020008FC
:100090007504000893020008930200089302000808
:1000A00093020008930200089302000893020008DC
:1000B00093020008930200089302000893020008CC
:1000C00093020008930200089302000893020008BC
:1000D00093020008930200089302000893020008AC
:1000E000930200089302000893020008930200089C
:1000F000930200089302000893020008930200088C
:10010000930200089302000893020008930200087B
:10011000930200089302000893020008930200086B
:10012000930200089302000893020008930200085B
:10013000930200089302000893020008930200084B
:10014000930200089302000893020008930200083B
:10015000930200089302000893020008930200082B
:10016000930200089302000893020008930200081B
:1001700093020008930200089302000800000000A8
:1001800093020008930200089302000893020008FB
:1001900093020008930200089302000893020008EB
:1001A00093020008930200089302000800F002F88E
:1001B00000F052F814A696E8000CB244B344DA45B5
:1001C00001D100F049F8BAE80F000FA696E8300018
:1001D000A5EB040504EB0607AAEB0704A7F101074A
:1001E0004FEA15154FEA3414A4F10104AC4201D3CF
:1001F00000F032F813F0010F18BFFB1A43F00103AF
:1002000000F001F8DBE71847EC2200000C230000A7
:10021000103A24BF78C878C1FAD8520724BF30C832
:1002200030C144BF04680C60704700007047000094
:100230000023002400250026103A28BF78C1FBD8EF
:10024000520728BF30C148BF0B6070471FB502F08E
:100250002CF91FBD10B510BD00F0D0F81146FFF706
:10026000F5FF02F0CBF800F0EEF803B4FFF7F2FF71
:1002700003BC00F0F5F80000094880470948004732
:10028000FEE7FEE7FEE7FEE7FEE7FEE7FEE7FEE746
:10029000FEE7FEE704480549054A064B70470000A3
:1002A000C5220008AD010008C8020020C8080020CF
:1002B000C8040020C804002053EA020C00F0698042
:1002C0002DE9F04B4FF00006002B1FBFB3FA83F56A
:1002D00003FA05F424FA05F65E4012BF1643B2FA9B
:1002E00082F502FA05F4C5F120051EBF22FA05FCCD
:1002F00044EA0C04203556EA044C4FEA144418BF73
:10030000641C4FF000084FF00009904271EB030CA1
:1003100039D3002919BFB1FA81F701FA07F6B0FA0B
:1003200080F700FA07F6C7F120071EBF20FA07FC86
:1003300046EA0C062037B6FBF4FCA7EB0507103F96
:1003400007F01F0BCBF120062CFA06F60CFA0BFB7C
:1003500044BFB3460026202FA4BF5E464FF0000BDB
:100360005BEA060C08BF4FF0010B19EB0B0948EBD9
:100370000608ABFB027C06FB02CC0BFB03CCC01BCC
:1003800071EB0C01C1E70B46024641464846BDE809
:10039000F08B13B5084318BF4FF0FF300146AFF3A1
:1003A0000080BDE81C4070474FF0000200B51346C6
:1003B00094469646203922BFA0E80C50A0E80C5085
:1003C000B1F12001BFF4F7AF090728BFA0E80C5036
:1003D00048BF0CC05DF804EB890028BF40F8042B2F
:1003E00008BF704748BF20F8022B11F0804F18BF9C
:1003F00000F8012B7047704770477047754600F052
:100400002BF8AE4605006946534620F007008546A6
:1004100018B020B5FFF73EFFBDE820404FF00006C2
:100420004FF000074FF000084FF0000BAC46ACE86F
:10043000C009ACE8C009ACE8C009ACE8C00921F0CB
:1004400007018D46704710B50446AFF30080204683
:10045000BDE81040FFF709BF0048704710000020BA
:1004600001491820ABBEFEE72600020070470000DD
:10047000FEE7000040F29C00C2F2000000F0E4B988
:1004800070470000002808BF70472DE9F04391B085
:1004900090F84520012A1FD100786FF00071089074
:1004A0000020CDE90A0008200C9040F27000C2F252
:1004B000000001914FF0FF3100F1080340F29C0071
:1004C0000091C2F2000008A96A4600F061F811B07C
:1004D000BDE8F043704700BF0026CDE906668DF801
:1004E0001810018A027840F29C0542EA012101F1CC
:1004F0008061019140F27001C2F2000101F1080433
:10050000C2F200054FF004094FF00808694606AA38
:10051000074628462346CDE90296CDF8108000F024
:1005200037F847F205000E90388A39780EAA41EA6A
:10053000002000F19050099008A9284623460F9604
:10054000CDE90A96CDF83080BE6100F021F811B0F7
:10055000BDE8F0437047000072B600BFFEE7000040
:1005600090F82020013A012A08D8006800F114020E
:100570000020136819431160704700BF00F1240286
:1005800001204FF480211368194311607047000067
:1005900010B590F820E0D0F800C0AEF1010EBEF129
:1005A000010FDCF808E011D81EF0E05F18D0CEF3A0
:1005B00001640120A04018608B68DBB1D1F804E031
:1005C000C86840EACE0040EA030E17E000F12403B9
:1005D00001204FF480211A681143196010BD00BF3B
:1005E00000F1240301204FF400111A68114319602F
:1005F00010BD00BF0868CB6843EA405E0CF5C070D0
:1006000000EB0413240140F804E00C69184640F89C
:10061000044F097D012903D1016841F48071016013
:1006200050680121D8601068986000201A68114352
:10063000196010BD90F82020013A012A30D8B0B5D9
:1006400046F20060C4F20000026842F0010202605B
:10065000026822F47C520260D1F814E0CC694A6A44
:100660000368012C43EA022202600EF01F024FF0E1
:10067000010303FA02F2C3696FEA020C23EA0203E0
:10068000C36113D02CBBC36803EA0C03C360CB68FF
:100690008C8844EA034300EBCE0423640B4611E04C
:1006A000416A41F48021416201207047C3681343CD
:1006B000C3600B688C8844EA034300EBCE042364D8
:1006C00001F10C038C681B8843EA044300EBCE0461
:1006D000636443688D6943EA0204D1F810E0096A53
:1006E000002D08BF03EA0C0444604369BEF1000F0B
:1006F00043EA020408BF03EA0C040129446102D161
:10070000C1691143C161016821F00101016000204C
:10071000B0BD000070470000B0B590F82040013C2B
:10072000012C7DD8D0F800C000290CBFDCF80C40AB
:10073000DCF81040A4077DD00CF5D8754FEA011CF9
:1007400055F80C4014F00404946055F80CE005EBE7
:10075000011C19BF4FEADE0555604FEA5E55156072
:10076000DCF80050E64605F00205D5605EF8044F5F
:1007700024075ABFDEF8004004F00F040824146177
:10078000DEF800400029C4F307249461DEF800502D
:100790004FEA15455561DCF808201A70026802EB33
:1007A0000112D2F8B8214FEA12225A70026802EB05
:1007B0000112D2F8B8214FEA12429A70026802EB95
:1007C0000112D2F8B8214FEA1262DA70026802EB25
:1007D0000112D2F8BC211A71026802EB0112D2F8A0
:1007E000BC214FEA12225A71026802EB0112D2F8C0
:1007F000BC214FEA12429A71026802EB0112D2F850
:10080000BC214FEA1262DA7100680CBF00F10C01E2
:1008100000F11001002020220B681A430A60B0BDCD
:1008200000F1240101204FF480220B681A430A6072
:10083000B0BD00BF00F1240101204FF400120B688D
:100840001A430A60B0BD00002DE9F04F81B00446A4
:1008500000684669D0F804908768D0F80CB0D0F8EA
:1008600010A0D0F81880F10704D1002530071DD45E
:1008700024E000BFF90710D00121BA07816009D434
:10088000780700F1AF80380700F1B680204600F00D
:1008900047FA02E0204600F045FA0025F80500F18D
:1008A0008780F80300F1B180300707D51BF01000F6
:1008B00004D0206845F400751021C160700708D588
:1008C0001BF0080005D020680821C160204600F018
:1008D000A7F9B00706D52068C068800702D0204677
:1008E00000F0A0F9700607D51AF0100004D02068B7
:1008F00045F4806510210161B00608D51AF00800A2
:1009000005D0206808210161204600F0D5F9F006E5
:1009100006D520680069800702D0204600F0CEF995
:10092000B00308D519F0100005D0206810214160EF
:10093000204600F0C5F9F00308D519F0080005D0ED
:10094000206808214160204600F0F6F9300440F1AB
:100950009B805FEA497040F1948006F4807008EA59
:10096000102028435FEA8871014648BF41F0020128
:10097000B20558BF01465FEA48700D4648BF45F0D2
:100980000405700558BF0D46300540F17A8018F017
:10099000700000F076801038000905286CD8DFE878
:1009A00000F003655D61596945F0080564E000BF2A
:1009B00020684FF48071BA0581600BD4780515D496
:1009C00038051DD4204600F0AFF9F8037FF56CAF71
:1009D0001BE000BF204600F0A9F9F8037FF564AFE3
:1009E00013E000BF4FF4006558E700BF05F5005560
:1009F000F8037FF559AF08E04FF480554EE700BF8C
:100A000005F58045F8037FF54FAF20684FF480313E
:100A1000BA0381600AD4780310D4380314D4204672
:100A200000F086F930073FF541AF47E7204600F078
:100A300081F930073FF53AAF40E700BF05F50045C3
:100A400030073FF533AF39E705F5803530073FF51F
:100A50002DAF33E745F080050EE000BF45F02005DF
:100A60000AE000BF45F0400506E000BF45F0100574
:100A700002E000BF45F480752068816921F07001B3
:100A8000816120680421416055B1606A40EA050136
:100A90002046616201B0BDE8F04FFFF73BBE00BFEA
:100AA00001B0BDE8F08F0000002804BF01207047AE
:100AB000B0B5044690F8200010B9204600F06EF85A
:100AC0002068016841F00101016000F01BFA054651
:100AD00020684168C90705D100F014FA401B0B28B3
:100AE000F6D310E0016821F00201016000F00AFA7B
:100AF000054600BF2068416889070DD500F002FA5D
:100B0000401B0B28F6D3606A052140F40030606278
:100B1000012084F82010B0BD217E0268012922F056
:100B2000800208BF80320260617E0268012922F0E3
:100B3000400208BF40320260A17E0268012922F013
:100B4000200208BF20320260E17E0268012922F003
:100B5000100218BF10320260217F0268012922F0C2
:100B6000080208BF08320260617F0268012922F092
:100B7000040208BF04320260D4E901C2D4E903359B
:100B800061691A432A431143ACF101021143C16167
:100B900000200121606284F82010B0BD80B586B0CD
:100BA00046F200410068C4F200010022884205922A
:100BB000CDE903220292019202D006B080BD00BFAF
:100BC00043F630000092C4F20200036943F0007360
:100BD0000361036903F000730093009B00920368B4
:100BE00043F0080303600068022300F0080000904F
:100BF00000980320019004900920059001F5D4305D
:100C000001A9CDE9023200F0ADF814200021002244
:100C100000F0FAF9142000F0E5F906B080BD0000FC
:100C200070470000016846F20042C4F2000291429F
:100C300018BF704710B588B040F2B823C2F2000365
:100C400001AA0021FFF768FD20B108B0BDE81040FF
:100C5000704700BF039888B10428F6D1029A40F289
:100C6000881040F2B821C2F20000C2F2000100F088
:100C7000C3FF08B0BDE81040704700BF0198A0F264
:100C800001210329E1D80138C1B2490051FA80F0AD
:100C900040F2C401C2F2000101EBC00440F2B821ED
:100CA000C2F20001204601F03FFB204601F07AFB32
:100CB00008B0BDE810407047704700007047000062
:100CC00070470000B0B5044690F8200001281DD1FF
:100CD000022084F820002068016821F001010160F1
:100CE00000F010F9054600BF20684068C00713D027
:100CF00000F008F9401B0B28F6D3606A40F400307E
:100D00006062052084F820000120B0BD606A40F4D4
:100D1000002060620120B0BD00206062B0BD000014
:100D200070470000704700007047000070470000E7
:100D3000704700007047000070470000B0B50446DF
:100D400000F0E0F8054640F20000C2F20000007832
:100D5000611C18BF044400BF00F0D4F8401BA0423F
:100D6000FAD3B0BD2DE9F04F83B000F1200200F1BD
:100D70003E4742F20045009207F1FF77C4F20205B8
:100D80000A224FEAB726A84208BF092200254FF0E1
:100D900000084FF00009092E38BF4FEAB722019230
:100DA0000AE000BF09F1010908F10208B9F1100FCA
:100DB00005F1040500F0A2800F68012202FA09FE85
:100DC00017EA0E0AEED0D1F804C003220CF0030794
:100DD0007E1E02FA08F4012E6FEA040B12D8846812
:100DE000CE6804EA0B0406FA08F6344384604468CB
:100DF00024EA0E06CCF3001404FA09F426434660F4
:100E000004E000BF032F01D103271EE0C6688C68F1
:100E100006EA0B0604FA08F42643022FC66014D132
:100E20006FF00302009E02EA590756F807C005F06A
:100E30001C040F220B69A2402CEA0202A3401A43B1
:100E4000F251D1F804C00CF00307026807FA08F366
:100E500002EA0B021A431CF4403F0260A2D00022B7
:100E600043F644030292C4F202031A6843F60044B4
:100E700042F480421A601A68C4F2010402F480420B
:100E80000292029A29F003024FF6084C2244CFF650
:100E9000FF7C52F80C3005F00C070F26BE40B34320
:100EA000019E06FA07F73B4342F80C30A2684B68F4
:100EB00042EA0A0743F60C4CDE0258BF22EA0A0750
:100EC000A760C4F2010CDCF800209E0242EA0A0787
:100ED00058BF22EA0A07CCF8007062689E0342EA13
:100EE0000A0758BF22EA0A0767602268DB0342EA62
:100EF0000A0758BF22EA0A07276053E703B0BDE894
:100F0000F08F000040F2C020C2F20000006870477D
:100F100040F2000040F2C021C2F20000C2F2000123
:100F200000780A68104408607047000080B543F6F6
:100F30000040C4F20200016841F4007101600168E0
:100F400041F480610160016841F480710160032017
:100F500000F086F80F2000F005F800F027F80020D8
:100F600080BD000070B540F20006C2F2000640F2FB
:100F700008013278C2F200014FF47A730968B3FBBA
:100F8000F2F20446B1FBF2F1084600F039FB0F2CF7
:100F90004FF0010508D838B94FF0FF302146002244
:100FA000002500F031F87460284670BD82B0002042
:100FB00043F640010190C4F202014A6842F48042C3
:100FC0004A604A6802F480420192019A00900868DF
:100FD00040F080500860086800F080500090009851
:100FE00002B07047002848BF704700F01F0101227F
:100FF00002FA01F11C2202EAD0004EF20012CEF2F7
:10100000000281507047000010B54EF60C5CCEF225
:10101000000CDCF80030C3F3022E8EF00704042C21
:1010200028BF0424BEF103034FF0FF3E0EFA04F480
:1010300038BF0023A14399400EFA03F39A431143AA
:1010400000F00F0200F160430901043A03F5644324
:101050006244002848BF02F10C03197010BD000063
:101060004EF60C51CEF200010A684FF6FF031A400B
:1010700060F30A2242F0806040F0FD700860704723
:10108000002804BF012070472DE9F04143F608080D
:10109000C4F202080446D8F8F8030D4600F00F0029
:1010A000814207D988F8F853D8F8F80300F00F0008
:1010B000A84277D12068810717D5410705D5D8F810
:1010C000001041F4E051C8F80010010705D5D8F828
:1010D000001041F46041C8F80010D8F80010A26870
:1010E00021F0F0011143C8F80010C00740D1D8F832
:1010F000F80300F00F00854207D288F8F853D8F8BB
:10110000F80300F00F00A8424CD12068410707D532
:10111000D8F80010E26821F4E0511143C8F800103B
:10112000000708D5D8F80000216920F4604040EAA3
:10113000C100C8F8000000F055F8D8F8001042F2DD
:10114000C442C1F30311C0F60002515C40F2080230
:1011500020FA01F140F20400C2F200000068C2F27D
:1011600000021160FFF7FEFE0020BDE8F08100BF25
:101170006068811E022907D258F8081C89015CBFEB
:101180000120BDE8F08111E0012807D158F8081CC2
:1011900089035CBF0120BDE8F08107E058F8081C16
:1011A000890703D40120BDE8F08100BFD8F8001002
:1011B00021F003010843C8F80000FFF7A3FE06462C
:1011C00041F28837D8F80000616800F00C00B0EBFD
:1011D000810F8CD0FFF796FE801BB842F2D9032016
:1011E000BDE8F08110B543F60404C4F2020461685E
:1011F000C1F3810142F20040C0F2F400DFE801F0E7
:1012000002040A0210BD00BF41F20020C0F27A00C1
:1012100010BD00BF216801F03F0221682368490228
:10122000C3F3881106D4A1FB00010023FFF744F8A3
:1012300007E000BF41F20020C0F27A004843B0FB53
:10124000F2F021680222C1F3014102EB4101B0FB3F
:10125000F1F010BD002804BF012070472DE9F041D6
:1012600082B00446007843F60006C007C4F20206C6
:101270000CD0B06800F00C00042840F08180306889
:10128000800303D56068002800F06881207880071B
:101290001BD5B06810F00C0F09D0B06800F00C003E
:1012A000082840F087807068400200F18380306831
:1012B000800703D5E068012840F05081306821693B
:1012C00020F0F80040EAC10030602078000713D415
:1012D000207840072AD4A569002D00F03A81B06833
:1012E00000F00C00082840F0A580012D40F00E8190
:1012F000012002B0BDE8F0816069002800F0828022
:101300000020C4F247200121C0F8801EFFF7FAFD3B
:10131000054600BF706F8007DAD4FFF7F3FD401B6E
:101320000228F7D9032002B0BDE8F081306C5FEAF3
:10133000C0080AD400200190306C40F08050306426
:10134000306C00F080500190019847F20007C4F221
:1013500000073868C00547D4386840F480703860AA
:10136000FFF7D0FD054600BF3868C0053CD4FFF745
:10137000C9FD401B0228F7D9032002B0BDE8F08167
:10138000B06800F00C00082803D1706840023FF5F7
:1013900076AF61683068B1F5803F07D0B1F5A02F16
:1013A00040F09A8040F480203060306840F4803013
:1013B00030609AE0E068002840F20000C4F2472064
:1013C0005CD001210160FFF79DFD05463068800774
:1013D0003FF574AFFFF796FD401B0228F6D90320B6
:1013E00002B0BDE8F08100BFA168306F012905D0CF
:1013F000052955D140F004003067306F40F00100FE
:10140000306756E00020C4F247200021C0F8801E5B
:10141000FFF778FD054600BF706F80077FF558AF76
:10142000FFF770FD401B0228F6D9032002B0BDE88B
:10143000F08100BF0027C4F2472700203866FFF77D
:1014400061FD022D05460DD13068800140F18A8092
:10145000FFF758FD401B02284FF00300F4D902B0FB
:10146000BDE8F0813068800173D5FFF74BFD401B6C
:1014700002284FF00300F5D9F1E700BF0021016019
:10148000FFF740FD054600BF306880077FF51DAFC0
:10149000FFF738FD401B02284FF00300F4D9DEE7C8
:1014A00020F001003067306F002920F00400306721
:1014B0007AD0FFF727FD054641F28837306F800765
:1014C00000F18480FFF71EFD401BB842F6D90320CF
:1014D00002B0BDE8F08100BF20F480303060306899
:1014E000002920F4802030607AD0FFF70BFD0546FC
:1014F000306880033FF5CAAEFFF704FD401B642847
:10150000F6D9032002B0BDE8F08100BF7068E16940
:1015100000F480028A4221D1216A00F03F028A420F
:101520001CD147F6C071626A0140B1EB821F15D130
:10153000A16A4FF6FF73C903994300F44032A1F545
:1015400080318A420AD1E16A00F07060B0EB016F2D
:1015500004D1002002B0BDE8F08100BF012002B03C
:10156000BDE8F08104F11C052FCD084340EA82104C
:10157000D9034FF6FF729143A1F5803140EA05602F
:101580000843706001203866FFF7BCFC044600BFCA
:1015900030688001DDD4FFF7B5FC001B02284FF056
:1015A0000300F5D95BE700BFFFF7ACFC054641F24D
:1015B000883700BF306F800708D5FFF7A3FC401BBA
:1015C000B8424FF00300F5D949E700BFB8F1000F6A
:1015D0003FF581AE306C20F0805030647BE600BF78
:1015E000FFF790FC054600BF306880037FF54EAEE4
:1015F000FFF788FC401B64284FF00300F4D92EE766
:10160000411E0020B0EB116F1CBF012070474EF24D
:101610001002CEF2000251604EF62351CEF20001CC
:10162000F0230B700721906011607047FEE7000007
:1016300080B540F29C0046F20041C2F20000C4F2C4
:10164000000100234FF4302C032280E80E00C0E993
:10165000033CC0E905338383FFF726FA002808BF5F
:1016600080BDBDE88040FEF777BF000083B000205A
:1016700043F630010290C4F202010A6842F080028F
:101680000A600A6802F080020292029A01900A68D7
:1016900042F001020A600A6802F001020192019A16
:1016A0000090086840F008000860086800F0080032
:1016B0000090009803B07047FEE7000010B50021CD
:1016C00000224CF6CD43C4F2FA41C3F64C634CF60B
:1016D000CD4E4CF6CD44C0E90421C0E90A2148F2C0
:1016E00000014FF0804CC3F64C7EC3F64C54C0E969
:1016F00002324FF07E53C4F23B51C0E900C2C0E950
:1017000006E4C0E90842C0E90C32C0E90E22C0E993
:101710001021C0E9122210BDA2B3B1F9121090ED50
:10172000130A03EE101A90ED092AB8EEC33A90EDB1
:101730000B1A30EE430A32EE005AB4EE415AB0EEC4
:10174000454AB1EE412AF1EE10FAC8BFB0EE414A67
:10175000B4EE424AF1EE10FAB0EE443AB4EE415A19
:1017600000F1180CB8BFB0EE423AF1EE10FA80ED7D
:10177000095A37DCB4EE424AF1EE10FAB8BF80EDF8
:10178000093A31E090ED122A91ED053A90ED031AF5
:1017900090ED050A32EE432A32EE015AB4EE405A79
:1017A000B0EE454AB1EE401AF1EE10FAC8BFB0EE05
:1017B000404AB4EE414AF1EE10FAB0EE443AB4EECB
:1017C000405AB8BFB0EE413AF1EE10FA80ED035A3C
:1017D0000EDCB4EE414AF1EE10FAB8BF80ED033AE8
:1017E00008E000BF80ED093A20211C232822B2E046
:1017F00080ED033A90ED004A90ED015A90ED046AB5
:1018000090ED027A32EE466A80ED042A23EE053A24
:1018100024EE022A32EE032A27EE063A33EE022A9B
:10182000B4EE402AF1EE10FAC8BFB0EE402AB1F98A
:101830001220B4EE412A00EE102AF1EE10FAB8BFE1
:10184000B0EE412AB8EEC00A90ED091A32EE402AF5
:1018500090ED0B0A31EE025AB4EE405AB0EE454A12
:10186000B1EE401AF1EE10FAC8BFB0EE404AB4EE45
:10187000414AF1EE10FAB0EE443AB4EE405AB8BF25
:10188000B0EE413AF1EE10FA80ED095A08DCB4EE00
:10189000414AF1EE10FAB8BF80ED093A02E000BF0C
:1018A00080ED093A90ED064A90ED075A90ED0A6AEC
:1018B00090ED087A32EE466A80ED0A2A23EE053A68
:1018C00024EE022A32EE032A27EE063A33EE022AEB
:1018D000B4EE402AF1EE10FAC8BFB0EE402AB4EEE2
:1018E000412AF1EE10FAB8BFB0EE412A91ED030A99
:1018F00090ED111A32EE400A90ED0F2A00F1300CF3
:1019000032EE005AB4EE415AB0EE454AB1EE412AE9
:10191000F1EE10FAC8BFB0EE414AB4EE424AF1EE21
:1019200010FAB0EE443AB4EE415AB8BFB0EE423AC3
:10193000F1EE10FA80ED0F5A08DCB4EE424AF1EEF7
:1019400010FAB8BF80ED0F3A02E000BF80ED0F3A09
:101950003821342340220344024493ED005A9CED85
:10196000006A92ED004A084423EE053A26EE005A3A
:1019700090ED006A30EE444A35EE033A26EE044A12
:1019800034EE033AB4EE413AF1EE10FAC8BFB0EECD
:10199000413AB4EE423A9FED0F1AF1EE10FAB8BF99
:1019A000B0EE423A9FED0C2AB4EE413AF1EE10FA55
:1019B000C8BFB0EE413AB4EE423AF1EE10FAB8BF09
:1019C000B0EE423ABDEEC31A11EE100A82ED000AE3
:1019D000704700BF00803B4500803BC5FEE700002C
:1019E0007047000010B540F27004C2F20004207885
:1019F000012818BF10BDFFF785FA6168401A0A2850
:101A000010D3FFF77FFA014640F28810C2F20000BF
:101A1000B0EE000AF1EE040A6160BDE8104000F08B
:101A20001DBB00BF10BD00002DE9F04F89B000F0D4
:101A300055FC40F28814C2F200042046E021FEF773
:101A4000B3FC47F20600A4F86C0047F20A00A4F8C1
:101A5000740047F20B00A4F87C0047F21000A4F8D1
:101A6000840047F21100A4F88C0047F21400A4F897
:101A7000940047F21600A4F89C0047F21700A4F85F
:101A8000A40047F21800A4F8AC0047F21900A4F82B
:101A9000B40047F21A00A4F8BC0047F21B00A4F8F7
:101AA000C40047F21C00A4F8CC0047F21D00A4F8C3
:101AB000D400FD204FF0010A002747F205082082DC
:101AC0002046012184F800A084F84570A4F86480C1
:101AD000FEF7D8FC1420FFF731F9208A217840F274
:101AE0009C0641EA002000F18850019040F270000D
:101AF000C2F2000000F10805C2F200064FF0040B2C
:101B00004FF00809694606AA30462B46CDE90687FC
:101B1000CDE902B7CDF81090FEF73AFD1420FFF79B
:101B20000DF9208A217806AA41EA002000F19050A0
:101B30000190694630462B46CDE9068ACDE902B7C9
:101B4000CDF81090C4F818A0FEF722FD0520FFF78D
:101B5000F5F847F218000690208A2178079741EAA5
:101B6000002000F1905001904FF0804007906946AE
:101B700006AA30462B46CDE902B7CDF81090FEF705
:101B800007FD0520FFF7DAF894F8450001280DD18C
:101B90006FF04070217807904FF0FF300690009171
:101BA000CDE90277CDF810900DE000BF208A2178B2
:101BB000CDE9067741EA002000F14070CDE902B797
:101BC000CDF81090019040F29C00C2F200006946EE
:101BD00006AA2B46FEF7DCFC1420FFF7AFF8FFF750
:101BE00091F940F27001C2F20001486001200870D2
:101BF00009B0BDE8F08F0000B0B5002818BF00297B
:101C000000D1B0BD90F84530012B5DD1D2B2FD2A94
:101C100040F0FC81CA784AB90A793AB94A792AB9B6
:101C20008A791AB9CA79002A00F00082B1F8012035
:101C3000B3EE091A12BA120C00EE102AB8EE400ADE
:101C40009FEDBD2A20EE010A80EE020ABAEE091AC3
:101C50009FEDBA2A30EE010A80ED140ACA780B799A
:101C6000120142EA131200EE102A9FEDB51AB8EEE7
:101C7000400A20EE010A80EE020A9FEDB21A30EE11
:101C8000010A80ED150A0A794B799FEDBD1A62F3BE
:101C90000B2300EE103AB8EE400A20EE010A80EE67
:101CA000020ABBEE011A30EE010A80ED160AC9885D
:101CB0009FEDBA1A49BA00EE101AB8EE400A20EEAB
:101CC000010A80ED170AB0BD0378C2F30724A342CE
:101CD00097D1C2F30563112B52D0022B40F09081B3
:101CE0000B88B3EE091A1BBA1B0C00EE103AB8EEC3
:101CF000400A9FED912A20EE010A80EE020ABAEE18
:101D0000091A30EE010A80ED140A4B889FED8C1AF7
:101D10001BBA1B0C00EE103AB8EE400A20EE010A86
:101D200080EE020A9FED871A30EE010A80ED150A57
:101D30008B889FED931A1BBA1B0C00EE103AB8EE7D
:101D4000400A20EE010A80EE020ABBEE011A30EED4
:101D5000010A80ED160AC9889FED901A49BA00EE73
:101D6000101AB8EE400AC2F3054120EE010A80F8CD
:101D70004410C2F3815180ED170A0166B0BD00BF67
:101D8000B1F800E047F20502964506D10A7900EE67
:101D9000102AB8EE400A80ED1A0A42F2D44C002311
:101DA000C0F6000C0CEB43025488A64540F0768048
:101DB0005C1CDFE814F00F003B00590033006F009B
:101DC00049005100410067002B00230089005F009B
:101DD0001B0031010C7900EE104AB8EE400A80ED8C
:101DE0001A0A928896455CD0B2E000BF4C68C0F8F1
:101DF000D0409288964554D0AAE000BF4C68C0F805
:101E0000B840928896454CD0A2E000BF4C68C0F81C
:101E1000B0409288964544D09AE000BF4C68C0F824
:101E20008040928896453CD092E000BF4C680467A1
:101E30009288964535D08BE04C68C0F8A0409288D7
:101E400096452ED084E000BF4C68C0F89040928840
:101E5000964526D07CE000BF4C68C0F89840928838
:101E600096451ED074E000BF4C6884679288964502
:101E700017D06DE04C68C0F8C8409288964510D0E5
:101E800066E000BF4C68C0F8A8409288964508D02C
:101E90005EE000BF4C68C0F8884000BF928896455D
:101EA00056D19A1CDFE802F0082838244430342C3C
:101EB00040201C503C18B8000A7900EE102AB8EEF9
:101EC000400A80ED1A0A43E04C68C0F8C04092888E
:101ED0009645E6D03CE000BF4A68C0F8D02037E025
:101EE0004A68C0F8B82033E04A68C0F8B0202FE054
:101EF0004A68C0F880202BE04A68026728E000BFEB
:101F00004A68C0F8A02023E04A68C0F890201FE08B
:101F10004A68C0F898201BE04A68826718E000BF52
:101F20004A68C0F8C82013E04A68C0F8A8200FE04B
:101F30004A68C0F888200BE000FF7F4700F07F452B
:101F40000000B042000030C24A68C0F8C02000BFA4
:101F500003330F2B3FF455AE3CF8132096457FF426
:101F600021AFDA1EDFE802F00E2E1C2206343A28DA
:101F7000461440584A680723C0F8A02012E700BF63
:101F8000000008424A680323C0F880200AE700BF27
:101F90004A680C23C0F8C82004E700BFCDCCCC3D74
:101FA0004A680523C0F89020FCE600BF4A68062373
:101FB000C0F89820F6E600BF4A680A23C0F8B820A7
:101FC000F0E600BF4A680423C0F88820EAE600BFB4
:101FD0004A680823C0F8A820E4E600BF4A6809233D
:101FE000C0F8B020DEE600BF4A680D23C0F8D0205C
:101FF000D8E600BF4A680B23C0F8C020D2E600BF75
:10200000D3B2FE2B18BFB0BD120A02700A6849682D
:10201000C0E90221B0BD00BFB1F9041000EE101AF2
:10202000B8EEC00A80ED360AB0BD00BFB1F80110AD
:102030001022CBB2202402EA912C04EA930401F08E
:10204000010201F00A012144C3F3800361441944F1
:1020500041EA820180F84410B0BD0000002808BFAA
:1020600070472DE9F04F89B080ED080A90ED1A0A0B
:10207000B7EE001AB4EE410A40F270050446F1EEE4
:1020800010FAC2F20005C0ED0B0A00F09E80208A13
:10209000217840F29C0641EA002000F1905008357A
:1020A000C2F200064FF0010B47F205084FF0040A98
:1020B00000274FF008090190694606AA30462B46D2
:1020C000CDF81CB0CDF81880CDF808A00397CDF856
:1020D0001090C4F818B0FEF75BFA208A217806AA9F
:1020E00041EA002000F188500190694630462B46B5
:1020F000CDE90687CDE902A7CDF81090FEF748FAA2
:1021000094F84500C4F818B001280DD16FF0407064
:10211000217807904FF0FF3006900091CDE90277CB
:10212000CDF810900DE000BF208A2178CDE9067728
:1021300041EA002000F14070CDE902A7CDF81090EF
:10214000019040F29C00C2F20000694606AA2B46AC
:10215000FEF71EFA47F224010691218A2278606B6D
:1021600042EA012140F29C06002701F19051C2F29F
:10217000000607974FF004084FF0080901910790F7
:10218000694606AA30462B46CDE90287CDF8109065
:10219000FEF7FEF947F225010691218A2278606A4E
:1021A00042EA012101F19051079701910790694698
:1021B00006AA30462B46CDE90287CDF81090FEF7EF
:1021C000E7F940F27005C2F200050120FEF7B6FD06
:1021D00047F21602002106920422CDE90221228A4A
:1021E0002378E06A07910821049143EA022101F172
:1021F0009051079040F29C00019105F10803C2F252
:102200000000694606AAFEF7C3F909B0BDE8F04F21
:102210007047000070470000FEF77ABE70B592B0BC
:1022200006AC20463021FEF7BFF8002543F64000FB
:102230000595CDE90355CDE901550095C4F202009D
:102240000168022641F080510160006800F0805072
:102250000090009847F200000095C4F20000016869
:1022600041F4404101600068A82100F44040009022
:102270000098012006904FF4803007904FF48000C2
:102280000D9004200E90119020460C96CDE90F166B
:10229000FEF7E0FF10B172B6FEE700BF0F20CDE9F8
:1022A00001064FF4A05004904FF48050059001A80F
:1022B00005210395FEF7E4FE10B172B6FEE700BFFC
:1022C00012B070BD4EF68850CEF20000016841F4A5
:1022D0007001016070470000FEE7000010B58AB091
:1022E00040F29C0401200021C2F200040890CDE9D4
:1022F0000610CDE90011CDE90211CDE904116946BE
:102300002046FEF797F92046FEF7DCFC2046022126
:10231000FEF726F92046FEF7D5FC20460221FEF7FF
:102320001FF90AB010BD00000288438A42800A8863
:1023300012BA4FEA124202804A8812BA4FEA124297
:102340000282BBB112B200EE102A1AB201EE102ABC
:102350009FED112AB8EEC11A21EE021A9FED0F2A45
:10236000B8EEC00A20EE020A30EE010ABDEEC00A45
:1023700010EE102A42828988B1EE041AC9BA00EE22
:10238000101AB8EEC00A9FED062A20EE010A20EED0
:10239000020A80ED030A70473333333F9A99993E1E
:1023A0000000803880B5B0F800C041889FED121A57
:1023B000BCEB01024EF20001CFF6FF7138BF4FF4C3
:1023C000005153189E46114648BFC3F1000E002A23
:1023D00048BF51428E45416838BF1A46114400EE4D
:1023E000101AB8EEC00A80EE010A4160A0F802C0DF
:1023F00080ED050A80BD00BF2CA09941FEF796FD37
:10240000FFF70CFFFFF732F9FFF712F9FFF70CFBAC
:1024100040F26824C2F200042046FFF74FF940F270
:10242000C4000026C2F20000C4F2FA3600F118051A
:10243000FFF7D8FA204629460122E664FFF76CF937
:1024400001460020002200F005F80A20FEF776FC85
:10245000EEE7000010B582B040F27C0EC2F2000E32
:102460004FF40073F4464CF8083F0023CEE90433E0
:10247000030A8EF80100080A8EF80200100A8EF88E
:10248000040040F29C0008248EF800308EF80310FF
:102490008EF80520C2F2000001AB61467246CEF80C
:1024A0001840FEF775F802B010BDF1EE100A4FF6B5
:1024B000FF71C0F2C03120EA010040F04070E1EE4F
:1024C000100A704700000000000000000102030431
:1024D00006070809057006700A700B7010701170FD
:1024E000147016701770187019701A701B701C70A9
:1024F0001D700000182500080000002010000000DA
:10250000100200082825000810000020B80800006C
:102510003002000800000000010000001000000070
:082520000024F400000000009B
:04000005080001AD41
:00000001FF
