:020000040800F2
:10000000B80800204D020008E91600083D15000858
:10001000BD15000843040008511D00080000000041
:10002000000000000000000000000000231C000889
:1000300051040008000000006D170008A91C00080A
:1000400067020008670200086702000867020008EC
:1000500067020008670200086702000867020008DC
:1000600067020008670200086702000867020008CC
:1000700067020008670200086702000867020008BC
:1000800067020008670200086702000867020008AC
:1000900045040008670200086702000867020008BC
:1000A000670200086702000867020008670200088C
:1000B000670200086702000867020008670200087C
:1000C000670200086702000867020008670200086C
:1000D000670200086702000867020008670200085C
:1000E000670200086702000867020008670200084C
:1000F000670200086702000867020008670200083C
:10010000670200086702000867020008670200082B
:10011000670200086702000867020008670200081B
:10012000670200086702000867020008670200080B
:1001300067020008670200086702000867020008FB
:1001400067020008670200086702000867020008EB
:1001500067020008670200086702000867020008DB
:1001600067020008670200086702000867020008CB
:10017000670200086702000867020008000000002C
:1001800067020008670200086702000867020008AB
:10019000670200086702000867020008670200089B
:1001A00067020008670200086702000800F002F812
:1001B00000F03CF80AA090E8000C82448344AAF1C5
:1001C0000107DA4501D100F031F8AFF2090EBAE8C3
:1001D0000F0013F0010F18BFFB1A43F0010318477B
:1001E0001C1D00003C1D0000103A24BF78C878C1D7
:1001F000FAD8520724BF30C830C144BF04680C602D
:10020000704700000023002400250026103A28BF74
:1002100078C1FBD8520728BF30C148BF0B60704778
:100220001FB501F04EFE1FBD10B510BD00F0CFF898
:100230001146FFF7F5FF01F0C7FD00F0EDF803B43C
:10024000FFF7F2FF03BC00F0F5F800000948804713
:1002500009480047FEE7FEE7FEE7FEE7FEE7FEE7A8
:10026000FEE7FEE7FEE7FEE704480549054A064BC0
:1002700070470000411D0008AD010008B8020020D1
:10028000B8080020B8040020B804002053EA020C8B
:1002900000F069802DE9F04B4FF00006002B1FBFE6
:1002A000B3FA83F503FA05F424FA05F65E4012BFAB
:1002B0001643B2FA82F502FA05F4C5F120051EBF15
:1002C00022FA05FC44EA0C04203556EA044C4FEAB5
:1002D000144418BF641C4FF000084FF0000990420E
:1002E00071EB030C39D3002919BFB1FA81F701FA78
:1002F00007F6B0FA80F700FA07F6C7F120071EBF2D
:1003000020FA07FC46EA0C062037B6FBF4FCA7EB04
:100310000507103F07F01F0BCBF120060CFA0BFB73
:100320002CFA06F644BFB3460026202FA4BF5E4633
:100330004FF0000B5BEA060C08BF4FF0010B19EB06
:100340000B09ABFB027C48EB0608C01B06FB02CC8A
:100350000BFB03CC71EB0C01C1E70B460246414697
:100360004846BDE8F08B13B54FF000004FF0000198
:10037000AFF30080BDE81C4070474FF0000200B5AD
:10038000134694469646203922BFA0E80C50A0E8B8
:100390000C50B1F12001BFF4F7AF090728BFA0E866
:1003A0000C5048BF0CC05DF804EB890028BF40F832
:1003B000042B08BF704748BF20F8022B11F0804F74
:1003C00018BF00F8012B704770477047704775469B
:1003D00000F02CF8AE4605006946534620F00700B1
:1003E000854618B020B5FFF73FFFBDE820404FF02D
:1003F00000064FF000074FF000084FF0000B21F00F
:100400000701AC46ACE8C009ACE8C009ACE8C009DB
:10041000ACE8C0098D46704710B50446AFF30080C4
:100420002046BDE81040FFF70ABF000000487047B3
:100430005802002001491820ABBEFEE7260002004A
:100440007047FEE7014800F0FCB9000058010020A9
:100450007047000010B588B0040028D094F845001B
:1004600028B108B02046BDE8104001F027BB0020AD
:1004700006908DF8181007900421CDE9021008208D
:100480000490218A4FF08062207842EA01210843DB
:100490000190084B06AA6946074800F073F86A22E3
:1004A0009FED060A47F20501204601F0BBFB08B0AC
:1004B00010BD0000180000205801002000000000BE
:1004C00000B589B000281DD090F8451021B109B0C1
:1004D0005DF804EB01F012BB002204210792CDE984
:1004E00002120821069204910178008A4FF04072AE
:1004F00042EA002001430191034B06AA69460348E2
:1005000000F040F809B000BD18000020580100209C
:1005100072B6FEE700B589B000281AD00022069214
:100520008DF81810090A8DF8191007920421CDE9E9
:100530000212082104910178008A4FF0885242EAA1
:10054000002001430191044B06AA6946034800F0CC
:1005500019F809B000BD0000180000205801002063
:1005600090F82020012A07D0022A05D0416A41F4E0
:100570008021416201207047006842690A4342615C
:1005800000207047F0B590F820500468A468012D51
:1005900005D0022D03D0416A41F480214DE014F0D2
:1005A000406F01D1E50045D5C4F301640125A540A4
:1005B0001D608D684FF4C0739DB1CE6835434E68A1
:1005C00045EAC605066803EB0417F5514FF4C275FA
:1005D000076805EB04150E697E51097D012905D0D8
:1005E00009E00E88CD6845EA4655EBE701684E59AB
:1005F00046F480764E511179D2F805504FF4C67604
:1006000041EA0521056806EB0416A9511178D2F8D4
:1006100001204FF4C47541EA0221026805EB04157C
:100620005151006803EB0411425842F0010242505C
:100630000020F0BD416A41F4001141620120F0BD8B
:1006400010B590F82020012A07D0022A05D0416A6F
:1006500041F480214162012010BD3B48D0F80022C6
:1006600042F00102C0F80022D0F8002222F47C52AD
:10067000C0F80022D0F800224B6A42EA0322C0F8F8
:1006800000220A7D02F01F0301229A40D0F81C329A
:100690009343C0F81C32CB69B3B9D0F80C32934302
:1006A000C0F80C328C894B6864F31F434C6900EB33
:1006B000C404C4F840320C890B6864F31F434C69CE
:1006C00000EBC404C4F84432CB69012B16D1D0F836
:1006D0000C321343C0F80C320C884B6864F31F4390
:1006E0004C6900EBC404C4F840320C89CB6864F355
:1006F0001F434C6900EBC404C4F844328B69002BDF
:10070000D0F804320ED01343C0F804320B69002B2A
:10071000D0F8143208D01343C0F81432096A012902
:1007200004D008E09343EFE79343F5E7D0F81C12B9
:100730001143C0F81C12D0F8001221F00101C0F8DA
:100740000012002010BD000000640040704770B52A
:1007500090F82040012C05D0022C03D0416A41F4CE
:10076000802128E0046809B32469A40720D04FF44D
:10077000D874056804EB01142D5915F00405956033
:1007800005682D591AD0ED08556005682C5904F0FC
:100790000204D4604FF4DA74056804EB01142E5996
:1007A00006F00F06082E0CD308250DE0E468DCE700
:1007B000416A41F400114162012070BD6D0D156068
:1007C000E3E72D5905F00F05156105682D59C5F3AF
:1007D0000725956105682C59240C54614FF4DC728F
:1007E000046802EB0112A4581C700468A458240A7F
:1007F0005C700468A458240C9C700468A258120E03
:10080000DA704FF4DE72046802EB0112A4581C7116
:100810000468A458240A5C710468A458240C9C71D0
:100820000468A258120EDA71006829B1016941F01A
:1008300020010161002070BDC16841F02001C1604C
:10084000F8E72DE9F05F0546006800244669D0F816
:1008500004908768D0F80CB0D0F810A0D0F81880B9
:10086000F10748D0F90714D001218160B80703D5FA
:10087000284600F0FCF90CE0780702D54FF400643C
:1008800007E0380702D54FF4805402E0284600F014
:10089000EDF9F80516D529684FF480708860B80521
:1008A00003D5284600F0E5F90CE0780502D544F4BC
:1008B000005407E0380502D544F4804402E028469D
:1008C00000F0D6F9F80316D529684FF48030886017
:1008D000B80303D5284600F0CEF90CE0780302D522
:1008E00044F4004407E0380302D544F4803402E0C5
:1008F000284600F0BFF9300707D55FEACB6004D582
:100900002968102044F40074C86070074FF008078D
:1009100007D55FEA0B7004D52868C760284600F049
:1009200057F9B00706D52868C068800702D0284666
:1009300000F050F9700607D55FEACA6004D529684F
:10094000102044F480640861B00607D55FEA0A709D
:1009500004D528680761284600F058F9F00606D546
:1009600028680069800702D0284600F050F9B003DB
:1009700008D55FEAC96005D5296810204860284677
:1009800000F046F9F00307D55FEA097004D528683E
:100990004760284600F070F9300446D55FEA497098
:1009A00040D5F00504D55FEAC87001D044F00104D9
:1009B000B00504D55FEA887001D544F002047005E3
:1009C00004D55FEA487001D544F00404300529D508
:1009D00018F0700F26D008F07000402815D006DC03
:1009E000102809D020280AD0302816D10AE0502833
:1009F0000ED0602811D10EE044F008040DE044F060
:100A000010040AE044F0200407E044F0400404E04D
:100A100044F0800401E044F480742868816921F086
:100A200070018161296804204860002C05D0686A43
:100A3000204368622846FFF789FEBDE8F09F70B545
:100A4000040003D094F8200010B104E0012070BD30
:100A5000204600F081F82068016841F00101016042
:100A600000F038FA0546052604E000F033FA401B92
:100A70000A2811D820684068C007F6D020680168AD
:100A800021F00201016000F025FA05460BE000F0BC
:100A900021FA401B0A2806D9606A40F400306062DF
:100AA00084F82060D2E7206840688007EFD4207E79
:100AB0000128206801683DD021F080010160607E3E
:100AC00001282068016838D021F040010160A07E33
:100AD00001282068016833D021F020010160E07E08
:100AE0000128206801682ED041F010010160207FAC
:100AF00001282068016829D021F008010160607F89
:100B000001282068016824D021F004010160D4E9A3
:100B100002010843D4E90412114308436168491EE5
:100B200008432168C86100206062012084F8200029
:100B3000002070BD41F08001C0E741F04001C5E7F1
:100B400041F02001CAE721F01001CFE741F0080190
:100B5000D4E741F00401D9E710B586B0044614216A
:100B60006846FFF70AFC17492068884227D11648D3
:100B70000021026842F000720260006800F000701C
:100B8000059011481038026842F0080202600068BF
:100B9000022200F0080005900320CDE90210CDE903
:100BA0000002092004906946084800F079F8002204
:100BB0001146142000F0FCF9142000F0EBF906B007
:100BC00010BD00000064004040380240000C0240AC
:100BD0007047000000B50B4A016889B091420CD102
:100BE00007AB6A460021FFF7B2FD0298042806D041
:100BF000009A07A9044800F019FE09B000BD019A47
:100C0000F7E70000006400402800002070477047AC
:100C10007047000070B5044690F82000012804D009
:100C2000606A40F40020606218E0022084F820002E
:100C30002068016821F00101016000F04BF90546D0
:100C40000EE000BF00F046F9401B0A2808D9606A90
:100C500040F400306062052084F82000012070BD5F
:100C600020684068C007EDD1606270BD7047704772
:100C700070477047704770477047000070B5044672
:100C800000F028F90546601C02D0044800780444AE
:100C900000F020F9401BA042FAD370BD00000020F4
:100CA0002DE9F84FDFF8F8A10022012403254FF0C9
:100CB0000F090AF1040BAAF1040E00BF0B6804FA35
:100CC00002F63340B34270D10F7907F00307012FCA
:100CD00001D0022F16D187684FEA420805FA08FCB6
:100CE00027EA0C07D1F80CC00CFA08FC4CEA070CF8
:100CF000C0F808C04768B7430E79C6F3001696409F
:100D00003E4346600E79F643B6070AD0C7684FEAFD
:100D1000420C05FA0CF6B7438E6806FA0CF63E4311
:100D2000C6600E7906F00306022E10D1D60800EB3D
:100D30008608D8F8206057074FEAD76C09FA0CF7F5
:100D4000BE430F6907FA0CF73743C8F820700668EE
:100D50004FEA420C05FA0CF7BE430F7907F0030780
:100D600007FA0CF7374307604E6816F4403F1CD073
:100D70004C4E376847F480473760366822F00307E7
:100D800006F480460096484E07EB060CDCF808682F
:100D900097073F0F09FA07F826EA0806DFF80C81E3
:100DA000404503D14FF0000841E072E0DFF80081D8
:100DB000404502D14FF0010839E0DFF8F8804045A6
:100DC00002D14FF0020832E0DFF8EC80404502D15A
:100DD0004FF003082BE0DFF8E480404502D14FF0EC
:100DE000040824E0DFF8D880404502D14FF0050820
:100DF0001DE0DFF8D080404502D14FF0060816E034
:100E0000DFF8C480404502D14FF007080FE0DFF85B
:100E1000BC80404502D14FF0080808E0DFF8B08000
:100E2000404502D14FF0090801E04FF00A0808FAE6
:100E300007F848EA0608CCF80888DAF80060574650
:100E4000D1F804C09E435FEACC2C00D51E433E601F
:100E5000DBF800605F46D1F804C09E435FEA8C2C4B
:100E600000D51E433E60DEF800607746D1F804C02E
:100E70009E435FEA8C3C00D51E433E60084F083F0E
:100E80003E68D1F804C09E435FEACC3C00D51E43C7
:100E90003E60521C102AFFF411AFBDE8F88F00002D
:100EA000083C01404438024000300140000002404C
:100EB0000004024000080240000C02400010024002
:100EC0000014024000180240001C024000200240B2
:100ED00000240240014880687047000000000020A4
:100EE0000248816802781144816070470000002048
:100EF0000B4810B5016841F400710160016841F4CC
:100F000080610160016841F480710160032000F09C
:100F10006FF80F2000F006F800F024F8002010BD54
:100F2000003C024070B50D4D04464FF47A712878AC
:100F3000B1FBF0F00A490968B1FBF0F000F0EAFA01
:100F400048B9102C07D200222146501E00F030F87C
:100F500000206C6070BD012070BD0000000000200A
:100F60000C0000200A4808B5016841F48041016086
:100F7000006800F4804000900548001F016841F0BF
:100F800080510160006800F08050009008BD0000B2
:100F900044380240002809DB00F01F020121914083
:100FA0004009800000F1E020C0F800117047000007
:100FB000F0B40E4B1B680C46C3F30223C3F10705C4
:100FC000042D00D90425191D072901D2002300E0B2
:100FD000DB1E012606FA05F1491E214099409E407C
:100FE000761E16403143F0BC00F0B3BE0CED00E0BD
:100FF000064900F0070208684FF6FF03184040EA70
:101000000220034A10430860704700000CED00E026
:101010000000FA052DE9F0470E46050065D0DFF81F
:101020001481D8F80000F7B200F00F00B04207D2E8
:1010300088F80070D8F8000000F00F00B04254D1DA
:1010400028683D4C810712D5400703D5206840F43D
:10105000E05020602878000703D5206840F4604005
:1010600020602068A96820F0F000084320602878FC
:10107000C0072DD0304968680839012812D00228ED
:1010800013D0032811D00968890700292DDA2168B7
:1010900021F0030101432160FFF71CFF814641F26B
:1010A000883A0EE009688903EFE709688901ECE7EF
:1010B000FFF710FFA0EB0901514502D90320BDE85D
:1010C000F0872068696800F00C00B0EB810FEFD169
:1010D000D8F80010404601F00F01B14207D907705F
:1010E000006800F00F00B04201D00120E7E7287847
:1010F000400705D52068E96820F4E05008432060E7
:101100002878000706D52068296920F4604040EA65
:10111000C100206000F018F82168084AC1F30311EB
:10112000515CC8400649086006480068FFF7FAFEAF
:101130000020C4E7003C024008380240CC1E0008F2
:101140000C00002004000020154810B5006810F0C5
:101150000C02144813D04110042A0FD0082A0ED1D3
:101160000F4C241F2268236802F03F025B0207D560
:101170002068C0F38810A0FB010106E0084610BDFE
:101180002168C1F38811A1FB00010023FFF77EF85D
:101190002168C1F30141491C4900B0FBF1F010BDC9
:1011A000083802400024F4002DE9F84F04006ED006
:1011B0002078DFF84C93C007A9F104054AD009F163
:1011C00004000168C1F38101012908D00068C0F35F
:1011D000810002280AD1D9F80000400206D528680B
:1011E000800337D560680028E1D033E06068B0F54F
:1011F000803F10D0B0F5A02F286810D020F48030A8
:101200002860286820F4802028606068A8B1FFF773
:1012100061FE06460DE0286840F48030F4E740F4B3
:1012200080202860F7E700BFFFF754FE801B64288A
:1012300073D828688003F7D50CE0FFF74BFE06460D
:1012400005E000BFFFF746FE801B6428F0D8286841
:101250008003F7D42078DFF8AC8280074FF0000AD3
:101260003ED5A748001D016811F00C0F08D000689A
:10127000C0F3810002280BD1D9F80000400207D446
:101280002868800716D5E068012800D112E033E114
:10129000E068B8B10120C8F80000FFF71BFE064661
:1012A00005E000BFFFF716FE801B0228C0D82868A3
:1012B0008007F7D52868216920F0F80040EAC100CE
:1012C00028600DE0C8F800A0FFF704FE064604E021
:1012D000FFF700FE801B02281FD828688007F7D47C
:1012E0002078000722D5864F87486169703771B131
:1012F00001210160FFF7EEFD064604E0FFF7EAFD7D
:10130000801B022809D838688007F7D50EE0C0F89E
:1013100000A0FFF7DFFD064605E082E0FFF7DAFDFB
:10132000801B02287DD838688007F7D420784007D2
:1013300068D5DFF8CCB100270BF13C0BDBF80000DF
:10134000C0000BD4DBF8001041F08051CBF8001046
:10135000DBF80000012700F0805000906B4E3068F1
:10136000C00510D4306840F480703060FFF7B2FDE3
:10137000009005E0FFF7AEFD0099401A022850D812
:101380003068C005F6D55E4EA0686C3601280FD0D7
:101390000528306810D020F001003060306820F05F
:1013A00004003060A068B8B1FFF794FD00900FE032
:1013B000306840F00100F4E740F004003060F7E7E7
:1013C000FFF788FD0099411A41F28830814266D8C2
:1013D00030688007F4D50EE0FFF77CFD009007E051
:1013E000FFF778FD0099411A41F28830814256D8C2
:1013F00030688007F4D42FB1DBF8001021F0805161
:10140000CBF80010A069C8B33D49091D0968C1F3B4
:10141000810102294AD00228504607D0C8F860004E
:1014200000E03CE0FFF756FD04463BE04746C8F8C5
:101430006000FFF74FFD064605E000BFFFF74AFDDD
:10144000801B02282BD828688001F7D4D4E9070133
:101450000843A16A2E4A490802EB0141626A41EA47
:101460008211084394F82C1040EA0161C9F8001079
:1014700001203866FFF72EFD044606E03EE000BF7F
:10148000FFF728FD001B022809D828688001F7D53E
:1014900034E000BFFFF71EFD001B022802D9032025
:1014A000BDE8F88F28688001F4D427E00128F7D040
:1014B000D9F80000E26900F4800191421CD1226A4F
:1014C00000F03F01914217D147F6C071626A0140B6
:1014D000B1EB821F10D1A26A4FF0FF3300F440310C
:1014E00003EB5202B1EB024F06D194F82C1000F03E
:1014F0007060B0EB016F01D00120D1E70020CFE791
:101500000438024000004742800E4742007000400D
:101510000000FFFF10B5401EB0F1807F01D3012015
:1015200010BD4FF0E02460610F21601700F011FC46
:101530000020A06107202061002010BDFEE7000010
:101540000E4810B50C4901600321416000214FF4A1
:1015500030228160C0E903124161017641768176D3
:10156000C17601774177FFF76AFA002803D0BDE81A
:101570001040FEF7CDBF10BD0064004058010020B0
:101580000D4808B5016841F080010160016801F073
:1015900080010091016841F001010160016801F0E2
:1015A00001010091016841F008010160006800F04C
:1015B0000800009008BD000030380240FEE700003F
:1015C000B0EE000A80ED000A9FED190ADFED190A5E
:1015D00080ED010AC0ED020A80ED030ADFED160A74
:1015E0009FED161A00F1100181EC030A9FED141A09
:1015F00080ED071A80ED081A80ED090A80ED0A0ACD
:10160000C0ED0B0AF7EE000AC0ED0C0A80ED0D0AE2
:1016100080ED0E0A80ED0F0ADFED0A0A80ED100A58
:10162000C0ED110A80ED120A80ED130A7047000028
:1016300000000000CDCC4C3E0000FA44CDCC4C3F25
:10164000CDCC4C3D00803B452DE9F041DFF890804A
:10165000244F0D462DED028B04469FED1F8ADFEDD2
:101660001F8A00F11806E2B1B1F9120000EE100A6B
:101670003046F8EEC00A94ED130A25E0B0EE480AB1
:1016800006E000BF10EE100A404501D9B0EE680A2E
:10169000BDEC028BBDEEC00A10EE100A00B2BDE830
:1016A000F081D5ED050A94ED120A00F01EF8B5F9A7
:1016B000120000EE900A3046F8EEE00A00F015F84D
:1016C000D5ED030A04F1300000F00FF810EE100A17
:1016D000B842D7DDD2E7000000803B4500803BC523
:1016E00000803BC500803B45FEE730EE600AD0ED50
:1016F000030A30EE801A80ED031AD0ED050AB4EE2D
:10170000E01AF1EE10FA01DDC0ED030AD0ED031A84
:10171000B1EE601AF4EEC11AF1EE10FA01D280EDCA
:10172000031AD0ED041A80ED040AD0ED032A30EE3E
:10173000612AD0ED011A61EEA21AD0ED002A42EE24
:10174000801A90ED020A40EE021AB0EE610AF4EE41
:10175000C00AF1EE10FA01D2B0EE600AB4EEC01A7F
:10176000F1EE10FA01DDB0EE410A7047704700005B
:1017700010B50B4C2078002811D0FFF7ABFB616847
:10178000401A0A280BD3FFF7A5FB6060BDE81040A4
:10179000F0EE000AB7EE000A024800F0CFB910BD23
:1017A000100000202800002010B500F0E3FA00220D
:1017B00001211C4800F0FAF91A49FD200882012194
:1017C0001848FEF747FE1420FFF758FA47F20504C1
:1017D00021461448FEF79EFE1420FFF74FFA6A22B6
:1017E000B0EE000A21460F4800F01CFA0520FFF772
:1017F00045FA7022B0EE000A47F21801094800F0DD
:1018000011FA0520FFF73AFA0648FEF759FE1420B0
:10181000FFF734FAFFF75EFB0349486001200870C8
:1018200010BD0000280000201000002038B515462B
:101830000B46040046D0002B44D094F84500E9B292
:10184000DFED9A2A9FED9A3A9FED9A2AD8B3FD29A7
:1018500047D1D87838B9187928B9587918B998790A
:1018600008B9D87980B3B3F80100102140BAF2EE7C
:10187000090ABAEE090A00F00FFB84ED140AD878C1
:101880001979000140EA11100C21F0EE620AB0EE65
:10189000430A00F001FB84ED150A98880C2140BA38
:1018A000F3EE010ABBEE010A00F0F6FA84ED160A27
:1018B000D88840BA00EE100AB8EE400A20EE020ABC
:1018C00084ED170A38BD11E0FFE70020ADF80000F5
:1018D000B3F80100ADF8000000F0A2FA84F844006B
:1018E000F0E71868A0605868E060EBE72078C5F37F
:1018F00007229042E6D1C5F30560022805D01128E1
:1019000036D0FE29DED12270EBE71888102140BACC
:10191000F2EE090ABAEE090A00F0BEFA84ED140AE2
:101920005888102140BAF0EE620AB0EE430A00F087
:10193000B3FA84ED150A9888102140BAF3EE010A33
:10194000BBEE010A00F0A8FA84ED160AD88840BA66
:1019500000EE100AC5F30540B8EE400A20EE020A78
:1019600084ED170A84F84400C5F381502066A9E786
:101970001988514A002000BF32F810508D4275D1AD
:101980000F2873D2DFE800F0081119212A333C45F3
:101990004E576069737C8500187900EE100A0120AB
:1019A000B8EE400A84ED1A0AE6E71879D3F8055034
:1019B00040EA052020670220DEE71879D3F80550B9
:1019C00040EA0520A0670320D6E71879D3F8055030
:1019D00040EA0520C4F880000420CDE71879D3F848
:1019E000055040EA0520C4F888000520C4E71879AE
:1019F000D3F8055040EA0520C4F890000620BBE764
:101A00001879D3F8055040EA0520C4F8980007205B
:101A1000B2E71879D3F8055040EA0520C4F8A000D1
:101A20000820A9E71879D3F8055040EA0520C4F842
:101A3000A8000920A0E71879D3F8055040EA05204E
:101A4000C4F8B0000A2097E71879D3F8055040EAA7
:101A50000520C4F8B8000B208EE71879D3F805509C
:101A600040EA0520C4F8C0000C2085E71AE0187988
:101A7000D3F8055040EA0520C4F8C8000D207BE7E4
:101A80001879D3F8055040EA0520C4F8D0000E209C
:101A900072E7B3F9040000EE100AB8EEC00A84ED54
:101AA000360A0FE7401C0E2886DD0BE700003042A7
:101AB000000030C2CDCCCC3DDC1E000800B589B0A2
:101AC000002811D009A20B4BD2E90012CDE9061271
:101AD000007800900020029003900820049006AA4D
:101AE00069460548FEF74EFD09B000BDFFFFFFFF48
:101AF000FFFFFFFD180000205801002000B589B04D
:101B0000002811D009A20B4BD2E90012CDE9061230
:101B1000007800900020029003900820049006AA0C
:101B200069460548FEF72EFD09B000BDFFFFFFFF27
:101B3000FFFFFFFC180000205801002070B50400D2
:101B400033D084ED080AC4ED0C0AA06EB0F1804FCA
:101B500021D047F205056A22B0EE000A2946204648
:101B600000F060F829462046FEF7D4FC2046FEF738
:101B7000A7FC0220A06194ED0C0A702247F2180124
:101B8000204600F04FF87022B2EE040A47F222011C
:101B9000204600F047F894ED080A2046BDE8704062
:101BA000702247F20A0100F03DB870BD70B51546CD
:101BB0000E46040034D0E021FEF7DFFB04F8106B82
:101BC000FD2024F8080B002044F8460B04F8195CAB
:101BD00004F8180C47F20500E080401CE081001D6D
:101BE000E082401CE083401DE084401CE085C01C76
:101BF000E086801CE087401CA4F84600401CA4F846
:101C00004E00401CA4F85600401CA4F85E00401C86
:101C1000A4F86600401CA4F86E00401CA4F87600EE
:101C200070BD704770B588B0002836D0002300938F
:101C30000424CDE90443019308240694058A04781A
:101C40008DF800104FF09056090A46EA05252C43FE
:101C50008DF801108DF8023003948DF80330702A4E
:101C600002D06A2A03D012E08DED010A0FE0FDEEEA
:101C7000C00ABCEEC00AC0ED060A10EE100A8DF8CC
:101C800004008DF805308DF806308DF80730044BD0
:101C90006A4602A90348FEF775FC08B070BD000053
:101CA0001800002058010020FFF71AB930B593B092
:101CB00030216846FEF761FB14210CA8FEF75DFB9E
:101CC0001D480025016841F080510160006800F066
:101CD000805011901948016841F44041016000684A
:101CE000022400F440401190012000900004019073
:101CF0008001CDE9064008AA0420A82182E813004B
:101D00000B906846FFF750FA08B172B6FEE70CA9CF
:101D10000F2081E831004FF4A0500F904FF4805015
:101D2000109005210CA8FFF775F9002801D072B6B4
:101D3000FEE713B030BD00004038024000700040A4
:101D40000248016841F470010160704788ED00E0CD
:101D5000FEE70907090E002804DB00F1E02080F807
:101D60000014704700F00F0000F1E02080F8141D0F
:101D70007047000010B500F00BF80448FEF74AFF6A
:101D8000BDE8104002210148FEF7EABB58010020DF
:101D900000B58BB000200121CDE90601089100902B
:101DA0000190029003900590049069460548FEF763
:101DB00047FC0448FEF72EFF02210248FEF7D0FB45
:101DC0000BB000BD580100202DED028BFFF790F8FD
:101DD000FFF76CFFFFF7D4FBFFF7B2FBFFF7E4FC64
:101DE0000C48FFF7EDFB0B4D9FED0B8A0B4C00BF32
:101DF000FFF7BEFC85ED138A012221460548FFF757
:101E000023FC01460022104600F024F80A20FEF7C9
:101E100035FFEDE7080100200000FA43980100209B
:101E2000014600204A0400D510200A0601D540F0E2
:101E300020000A0701D540F008004A0701D540F00C
:101E400001008A0701D540F00200C90701D040F027
:101E50000400704738B50D4B4FF400741C6000242B
:101E60009C60DC6008241C61094B040A1C705870DB
:101E7000080A9870D970100A18715A716B46044A92
:101E800002490448FEF77EFB38BD000040020020F6
:101E90001C0000205801002001228A40521E1040E0
:101EA00030EEC01A00EE900AF8EE600A21EE201A19
:101EB00000EE902AF8EE601AC1EE210A30EE800A98
:101EC00070474FF04070E1EE100A704700000000CC
:101ED00000000000010203040607080905700670EF
:101EE0000A700B70107011701470167017701870E3
:101EF00019701A701B701C701D7000001C1F0008E8
:101F00000000002024000000E8010008401F000835
:101F100024000020940800000402000801000000D2
:101F200010000000000000000024F4000000000089
:101F300000000000000000000000000000000000A1
:04000005080001AD41
:00000001FF
